{
    "contractName": "FanPiao777v2",
    "abi": [
        {
            "inputs": [
                {
                    "internalType": "string",
                    "name": "name",
                    "type": "string"
                },
                {
                    "internalType": "string",
                    "name": "symbol",
                    "type": "string"
                },
                {
                    "internalType": "uint256",
                    "name": "initialSupply",
                    "type": "uint256"
                },
                {
                    "internalType": "address[]",
                    "name": "defaultOperators",
                    "type": "address[]"
                }
            ],
            "payable": false,
            "stateMutability": "nonpayable",
            "type": "constructor"
        },
        {
            "anonymous": false,
            "inputs": [
                {
                    "indexed": true,
                    "internalType": "address",
                    "name": "owner",
                    "type": "address"
                },
                {
                    "indexed": true,
                    "internalType": "address",
                    "name": "spender",
                    "type": "address"
                },
                {
                    "indexed": false,
                    "internalType": "uint256",
                    "name": "value",
                    "type": "uint256"
                }
            ],
            "name": "Approval",
            "type": "event"
        },
        {
            "anonymous": false,
            "inputs": [
                {
                    "indexed": true,
                    "internalType": "address",
                    "name": "operator",
                    "type": "address"
                },
                {
                    "indexed": true,
                    "internalType": "address",
                    "name": "tokenHolder",
                    "type": "address"
                }
            ],
            "name": "AuthorizedOperator",
            "type": "event"
        },
        {
            "anonymous": false,
            "inputs": [
                {
                    "indexed": true,
                    "internalType": "address",
                    "name": "operator",
                    "type": "address"
                },
                {
                    "indexed": true,
                    "internalType": "address",
                    "name": "from",
                    "type": "address"
                },
                {
                    "indexed": false,
                    "internalType": "uint256",
                    "name": "amount",
                    "type": "uint256"
                },
                {
                    "indexed": false,
                    "internalType": "bytes",
                    "name": "data",
                    "type": "bytes"
                },
                {
                    "indexed": false,
                    "internalType": "bytes",
                    "name": "operatorData",
                    "type": "bytes"
                }
            ],
            "name": "Burned",
            "type": "event"
        },
        {
            "anonymous": false,
            "inputs": [
                {
                    "indexed": true,
                    "internalType": "address",
                    "name": "operator",
                    "type": "address"
                },
                {
                    "indexed": true,
                    "internalType": "address",
                    "name": "to",
                    "type": "address"
                },
                {
                    "indexed": false,
                    "internalType": "uint256",
                    "name": "amount",
                    "type": "uint256"
                },
                {
                    "indexed": false,
                    "internalType": "bytes",
                    "name": "data",
                    "type": "bytes"
                },
                {
                    "indexed": false,
                    "internalType": "bytes",
                    "name": "operatorData",
                    "type": "bytes"
                }
            ],
            "name": "Minted",
            "type": "event"
        },
        {
            "anonymous": false,
            "inputs": [
                {
                    "indexed": true,
                    "internalType": "address",
                    "name": "account",
                    "type": "address"
                }
            ],
            "name": "MinterAdded",
            "type": "event"
        },
        {
            "anonymous": false,
            "inputs": [
                {
                    "indexed": true,
                    "internalType": "address",
                    "name": "account",
                    "type": "address"
                }
            ],
            "name": "MinterRemoved",
            "type": "event"
        },
        {
            "anonymous": false,
            "inputs": [
                {
                    "indexed": true,
                    "internalType": "address",
                    "name": "operator",
                    "type": "address"
                },
                {
                    "indexed": true,
                    "internalType": "address",
                    "name": "tokenHolder",
                    "type": "address"
                }
            ],
            "name": "RevokedOperator",
            "type": "event"
        },
        {
            "anonymous": false,
            "inputs": [
                {
                    "indexed": true,
                    "internalType": "address",
                    "name": "operator",
                    "type": "address"
                },
                {
                    "indexed": true,
                    "internalType": "address",
                    "name": "from",
                    "type": "address"
                },
                {
                    "indexed": true,
                    "internalType": "address",
                    "name": "to",
                    "type": "address"
                },
                {
                    "indexed": false,
                    "internalType": "uint256",
                    "name": "amount",
                    "type": "uint256"
                },
                {
                    "indexed": false,
                    "internalType": "bytes",
                    "name": "data",
                    "type": "bytes"
                },
                {
                    "indexed": false,
                    "internalType": "bytes",
                    "name": "operatorData",
                    "type": "bytes"
                }
            ],
            "name": "Sent",
            "type": "event"
        },
        {
            "anonymous": false,
            "inputs": [
                {
                    "indexed": true,
                    "internalType": "address",
                    "name": "from",
                    "type": "address"
                },
                {
                    "indexed": true,
                    "internalType": "address",
                    "name": "to",
                    "type": "address"
                },
                {
                    "indexed": false,
                    "internalType": "uint256",
                    "name": "value",
                    "type": "uint256"
                }
            ],
            "name": "Transfer",
            "type": "event"
        },
        {
            "constant": false,
            "inputs": [
                {
                    "internalType": "address",
                    "name": "account",
                    "type": "address"
                }
            ],
            "name": "addMinter",
            "outputs": [],
            "payable": false,
            "stateMutability": "nonpayable",
            "type": "function"
        },
        {
            "constant": true,
            "inputs": [
                {
                    "internalType": "address",
                    "name": "holder",
                    "type": "address"
                },
                {
                    "internalType": "address",
                    "name": "spender",
                    "type": "address"
                }
            ],
            "name": "allowance",
            "outputs": [
                {
                    "internalType": "uint256",
                    "name": "",
                    "type": "uint256"
                }
            ],
            "payable": false,
            "stateMutability": "view",
            "type": "function"
        },
        {
            "constant": false,
            "inputs": [
                {
                    "internalType": "address",
                    "name": "spender",
                    "type": "address"
                },
                {
                    "internalType": "uint256",
                    "name": "value",
                    "type": "uint256"
                }
            ],
            "name": "approve",
            "outputs": [
                {
                    "internalType": "bool",
                    "name": "",
                    "type": "bool"
                }
            ],
            "payable": false,
            "stateMutability": "nonpayable",
            "type": "function"
        },
        {
            "constant": false,
            "inputs": [
                {
                    "internalType": "address",
                    "name": "operator",
                    "type": "address"
                }
            ],
            "name": "authorizeOperator",
            "outputs": [],
            "payable": false,
            "stateMutability": "nonpayable",
            "type": "function"
        },
        {
            "constant": true,
            "inputs": [
                {
                    "internalType": "address",
                    "name": "tokenHolder",
                    "type": "address"
                }
            ],
            "name": "balanceOf",
            "outputs": [
                {
                    "internalType": "uint256",
                    "name": "",
                    "type": "uint256"
                }
            ],
            "payable": false,
            "stateMutability": "view",
            "type": "function"
        },
        {
            "constant": false,
            "inputs": [
                {
                    "internalType": "uint256",
                    "name": "amount",
                    "type": "uint256"
                },
                {
                    "internalType": "bytes",
                    "name": "data",
                    "type": "bytes"
                }
            ],
            "name": "burn",
            "outputs": [],
            "payable": false,
            "stateMutability": "nonpayable",
            "type": "function"
        },
        {
            "constant": true,
            "inputs": [],
            "name": "decimals",
            "outputs": [
                {
                    "internalType": "uint8",
                    "name": "",
                    "type": "uint8"
                }
            ],
            "payable": false,
            "stateMutability": "pure",
            "type": "function"
        },
        {
            "constant": true,
            "inputs": [],
            "name": "defaultOperators",
            "outputs": [
                {
                    "internalType": "address[]",
                    "name": "",
                    "type": "address[]"
                }
            ],
            "payable": false,
            "stateMutability": "view",
            "type": "function"
        },
        {
            "constant": true,
            "inputs": [],
            "name": "granularity",
            "outputs": [
                {
                    "internalType": "uint256",
                    "name": "",
                    "type": "uint256"
                }
            ],
            "payable": false,
            "stateMutability": "view",
            "type": "function"
        },
        {
            "constant": true,
            "inputs": [
                {
                    "internalType": "address",
                    "name": "account",
                    "type": "address"
                }
            ],
            "name": "isMinter",
            "outputs": [
                {
                    "internalType": "bool",
                    "name": "",
                    "type": "bool"
                }
            ],
            "payable": false,
            "stateMutability": "view",
            "type": "function"
        },
        {
            "constant": true,
            "inputs": [
                {
                    "internalType": "address",
                    "name": "operator",
                    "type": "address"
                },
                {
                    "internalType": "address",
                    "name": "tokenHolder",
                    "type": "address"
                }
            ],
            "name": "isOperatorFor",
            "outputs": [
                {
                    "internalType": "bool",
                    "name": "",
                    "type": "bool"
                }
            ],
            "payable": false,
            "stateMutability": "view",
            "type": "function"
        },
        {
            "constant": true,
            "inputs": [],
            "name": "issueWith",
            "outputs": [
                {
                    "internalType": "string",
                    "name": "",
                    "type": "string"
                }
            ],
            "payable": false,
            "stateMutability": "view",
            "type": "function"
        },
        {
            "constant": false,
            "inputs": [
                {
                    "internalType": "address",
                    "name": "account",
                    "type": "address"
                },
                {
                    "internalType": "uint256",
                    "name": "amount",
                    "type": "uint256"
                }
            ],
            "name": "mint",
            "outputs": [
                {
                    "internalType": "bool",
                    "name": "",
                    "type": "bool"
                }
            ],
            "payable": false,
            "stateMutability": "nonpayable",
            "type": "function"
        },
        {
            "constant": true,
            "inputs": [],
            "name": "name",
            "outputs": [
                {
                    "internalType": "string",
                    "name": "",
                    "type": "string"
                }
            ],
            "payable": false,
            "stateMutability": "view",
            "type": "function"
        },
        {
            "constant": false,
            "inputs": [
                {
                    "internalType": "address",
                    "name": "account",
                    "type": "address"
                },
                {
                    "internalType": "uint256",
                    "name": "amount",
                    "type": "uint256"
                },
                {
                    "internalType": "bytes",
                    "name": "data",
                    "type": "bytes"
                },
                {
                    "internalType": "bytes",
                    "name": "operatorData",
                    "type": "bytes"
                }
            ],
            "name": "operatorBurn",
            "outputs": [],
            "payable": false,
            "stateMutability": "nonpayable",
            "type": "function"
        },
        {
            "constant": false,
            "inputs": [
                {
                    "internalType": "address",
                    "name": "sender",
                    "type": "address"
                },
                {
                    "internalType": "address",
                    "name": "recipient",
                    "type": "address"
                },
                {
                    "internalType": "uint256",
                    "name": "amount",
                    "type": "uint256"
                },
                {
                    "internalType": "bytes",
                    "name": "data",
                    "type": "bytes"
                },
                {
                    "internalType": "bytes",
                    "name": "operatorData",
                    "type": "bytes"
                }
            ],
            "name": "operatorSend",
            "outputs": [],
            "payable": false,
            "stateMutability": "nonpayable",
            "type": "function"
        },
        {
            "constant": false,
            "inputs": [],
            "name": "renounceMinter",
            "outputs": [],
            "payable": false,
            "stateMutability": "nonpayable",
            "type": "function"
        },
        {
            "constant": false,
            "inputs": [
                {
                    "internalType": "address",
                    "name": "operator",
                    "type": "address"
                }
            ],
            "name": "revokeOperator",
            "outputs": [],
            "payable": false,
            "stateMutability": "nonpayable",
            "type": "function"
        },
        {
            "constant": false,
            "inputs": [
                {
                    "internalType": "address",
                    "name": "recipient",
                    "type": "address"
                },
                {
                    "internalType": "uint256",
                    "name": "amount",
                    "type": "uint256"
                },
                {
                    "internalType": "bytes",
                    "name": "data",
                    "type": "bytes"
                }
            ],
            "name": "send",
            "outputs": [],
            "payable": false,
            "stateMutability": "nonpayable",
            "type": "function"
        },
        {
            "constant": true,
            "inputs": [],
            "name": "symbol",
            "outputs": [
                {
                    "internalType": "string",
                    "name": "",
                    "type": "string"
                }
            ],
            "payable": false,
            "stateMutability": "view",
            "type": "function"
        },
        {
            "constant": true,
            "inputs": [],
            "name": "totalSupply",
            "outputs": [
                {
                    "internalType": "uint256",
                    "name": "",
                    "type": "uint256"
                }
            ],
            "payable": false,
            "stateMutability": "view",
            "type": "function"
        },
        {
            "constant": false,
            "inputs": [
                {
                    "internalType": "address",
                    "name": "recipient",
                    "type": "address"
                },
                {
                    "internalType": "uint256",
                    "name": "amount",
                    "type": "uint256"
                }
            ],
            "name": "transfer",
            "outputs": [
                {
                    "internalType": "bool",
                    "name": "",
                    "type": "bool"
                }
            ],
            "payable": false,
            "stateMutability": "nonpayable",
            "type": "function"
        },
        {
            "constant": false,
            "inputs": [
                {
                    "internalType": "address",
                    "name": "holder",
                    "type": "address"
                },
                {
                    "internalType": "address",
                    "name": "recipient",
                    "type": "address"
                },
                {
                    "internalType": "uint256",
                    "name": "amount",
                    "type": "uint256"
                }
            ],
            "name": "transferFrom",
            "outputs": [
                {
                    "internalType": "bool",
                    "name": "",
                    "type": "bool"
                }
            ],
            "payable": false,
            "stateMutability": "nonpayable",
            "type": "function"
        }
    ],
    "bytecode": "0x60806040526040518060400160405280601d81526020017f68747470733a2f2f7777772e6d61746174616b692e696f2f746f6b656e000000815250600a90805190602001906200005192919062001027565b503480156200005f57600080fd5b506040516200494338038062004943833981810160405260808110156200008557600080fd5b8101908080516040519392919084640100000000821115620000a657600080fd5b83820191506020820185811115620000bd57600080fd5b8251866001820283011164010000000082111715620000db57600080fd5b8083526020830192505050908051906020019080838360005b8381101562000111578082015181840152602081019050620000f4565b50505050905090810190601f1680156200013f5780820380516001836020036101000a031916815260200191505b50604052602001805160405193929190846401000000008211156200016357600080fd5b838201915060208201858111156200017a57600080fd5b82518660018202830111640100000000821117156200019857600080fd5b8083526020830192505050908051906020019080838360005b83811015620001ce578082015181840152602081019050620001b1565b50505050905090810190601f168015620001fc5780820380516001836020036101000a031916815260200191505b5060405260200180519060200190929190805160405193929190846401000000008211156200022a57600080fd5b838201915060208201858111156200024157600080fd5b82518660208202830111640100000000821117156200025f57600080fd5b8083526020830192505050908051906020019060200280838360005b83811015620002985780820151818401526020810190506200027b565b505050509050016040525050508383828260029080519060200190620002c092919062001027565b508160039080519060200190620002d992919062001027565b508060049080519060200190620002f2929190620010ae565b5060008090505b600480549050811015620003a557600160056000600484815481106200031b57fe5b9060005260206000200160009054906101000a900473ffffffffffffffffffffffffffffffffffffffff1673ffffffffffffffffffffffffffffffffffffffff1673ffffffffffffffffffffffffffffffffffffffff16815260200190815260200160002060006101000a81548160ff0219169083151502179055508080600101915050620002f9565b50731820a4b7618bde71dce8cdc73aab6c95905fad2473ffffffffffffffffffffffffffffffffffffffff166329965a1d3060405180807f455243373737546f6b656e000000000000000000000000000000000000000000815250600b0190506040518091039020306040518463ffffffff1660e01b8152600401808473ffffffffffffffffffffffffffffffffffffffff1673ffffffffffffffffffffffffffffffffffffffff1681526020018381526020018273ffffffffffffffffffffffffffffffffffffffff1673ffffffffffffffffffffffffffffffffffffffff1681526020019350505050600060405180830381600087803b158015620004ab57600080fd5b505af1158015620004c0573d6000803e3d6000fd5b50505050731820a4b7618bde71dce8cdc73aab6c95905fad2473ffffffffffffffffffffffffffffffffffffffff166329965a1d3060405180807f4552433230546f6b656e00000000000000000000000000000000000000000000815250600a0190506040518091039020306040518463ffffffff1660e01b8152600401808473ffffffffffffffffffffffffffffffffffffffff1673ffffffffffffffffffffffffffffffffffffffff1681526020018381526020018273ffffffffffffffffffffffffffffffffffffffff1673ffffffffffffffffffffffffffffffffffffffff1681526020019350505050600060405180830381600087803b158015620005c957600080fd5b505af1158015620005de573d6000803e3d6000fd5b5050505050505062000605620005f96200064260201b60201c565b6200064a60201b60201c565b620006383333846040518060200160405280600081525060405180602001604052806000815250620006ab60201b60201c565b50505050620011ab565b600033905090565b62000665816009620009d660201b620032ad1790919060201c565b8073ffffffffffffffffffffffffffffffffffffffff167f6ae172837ea30b801fbfcdd4108aa1d5bf8ff775444fd70256b44e6bf3dfc3f660405160405180910390a250565b600073ffffffffffffffffffffffffffffffffffffffff168473ffffffffffffffffffffffffffffffffffffffff1614156200074f576040517f08c379a00000000000000000000000000000000000000000000000000000000081526004018080602001828103825260208152602001807f4552433737373a206d696e7420746f20746865207a65726f206164647265737381525060200191505060405180910390fd5b6200076b8360015462000aba60201b620031da1790919060201c565b600181905550620007c9836000808773ffffffffffffffffffffffffffffffffffffffff1673ffffffffffffffffffffffffffffffffffffffff1681526020019081526020016000205462000aba60201b620031da1790919060201c565b6000808673ffffffffffffffffffffffffffffffffffffffff1673ffffffffffffffffffffffffffffffffffffffff168152602001908152602001600020819055506200082485600086868686600162000b4360201b60201c565b8373ffffffffffffffffffffffffffffffffffffffff168573ffffffffffffffffffffffffffffffffffffffff167f2fe5be0146f74c5bce36c0b80911af6c7d86ff27e89d5cfa61fc681327954e5d858585604051808481526020018060200180602001838103835285818151815260200191508051906020019080838360005b83811015620008c2578082015181840152602081019050620008a5565b50505050905090810190601f168015620008f05780820380516001836020036101000a031916815260200191505b50838103825284818151815260200191508051906020019080838360005b838110156200092b5780820151818401526020810190506200090e565b50505050905090810190601f168015620009595780820380516001836020036101000a031916815260200191505b509550505050505060405180910390a38373ffffffffffffffffffffffffffffffffffffffff16600073ffffffffffffffffffffffffffffffffffffffff167fddf252ad1be2c89b69c2b068fc378daa952ba7f163c4a11628f55a4df523b3ef856040518082815260200191505060405180910390a35050505050565b620009e8828262000efb60201b60201c565b1562000a5c576040517f08c379a000000000000000000000000000000000000000000000000000000000815260040180806020018281038252601f8152602001807f526f6c65733a206163636f756e7420616c72656164792068617320726f6c650081525060200191505060405180910390fd5b60018260000160008373ffffffffffffffffffffffffffffffffffffffff1673ffffffffffffffffffffffffffffffffffffffff16815260200190815260200160002060006101000a81548160ff0219169083151502179055505050565b60008082840190508381101562000b39576040517f08c379a000000000000000000000000000000000000000000000000000000000815260040180806020018281038252601b8152602001807f536166654d6174683a206164646974696f6e206f766572666c6f77000000000081525060200191505060405180910390fd5b8091505092915050565b6000731820a4b7618bde71dce8cdc73aab6c95905fad2473ffffffffffffffffffffffffffffffffffffffff1663aabbb8ca877fb281fc8c12954d22544db45de3159a39272895b169a852b314f9cc762e44c53b60001b6040518363ffffffff1660e01b8152600401808373ffffffffffffffffffffffffffffffffffffffff1673ffffffffffffffffffffffffffffffffffffffff1681526020018281526020019250505060206040518083038186803b15801562000c0257600080fd5b505afa15801562000c17573d6000803e3d6000fd5b505050506040513d602081101562000c2e57600080fd5b81019080805190602001909291905050509050600073ffffffffffffffffffffffffffffffffffffffff168173ffffffffffffffffffffffffffffffffffffffff161462000e64578073ffffffffffffffffffffffffffffffffffffffff166223de298989898989896040518763ffffffff1660e01b8152600401808773ffffffffffffffffffffffffffffffffffffffff1673ffffffffffffffffffffffffffffffffffffffff1681526020018673ffffffffffffffffffffffffffffffffffffffff1673ffffffffffffffffffffffffffffffffffffffff1681526020018573ffffffffffffffffffffffffffffffffffffffff1673ffffffffffffffffffffffffffffffffffffffff1681526020018481526020018060200180602001838103835285818151815260200191508051906020019080838360005b8381101562000d8857808201518184015260208101905062000d6b565b50505050905090810190601f16801562000db65780820380516001836020036101000a031916815260200191505b50838103825284818151815260200191508051906020019080838360005b8381101562000df157808201518184015260208101905062000dd4565b50505050905090810190601f16801562000e1f5780820380516001836020036101000a031916815260200191505b5098505050505050505050600060405180830381600087803b15801562000e4557600080fd5b505af115801562000e5a573d6000803e3d6000fd5b5050505062000ef1565b811562000ef05762000e978673ffffffffffffffffffffffffffffffffffffffff1662000fdb60201b620032621760201c565b1562000eef576040517f08c379a000000000000000000000000000000000000000000000000000000000815260040180806020018281038252604d815260200180620048f6604d913960600191505060405180910390fd5b5b5b5050505050505050565b60008073ffffffffffffffffffffffffffffffffffffffff168273ffffffffffffffffffffffffffffffffffffffff16141562000f84576040517f08c379a0000000000000000000000000000000000000000000000000000000008152600401808060200182810382526022815260200180620048d46022913960400191505060405180910390fd5b8260000160008373ffffffffffffffffffffffffffffffffffffffff1673ffffffffffffffffffffffffffffffffffffffff16815260200190815260200160002060009054906101000a900460ff16905092915050565b60008060007fc5d2460186f7233c927e7db2dcc703c0e500b653ca82273b7bfad8045d85a47060001b9050833f91506000801b82141580156200101e5750808214155b92505050919050565b828054600181600116156101000203166002900490600052602060002090601f016020900481019282601f106200106a57805160ff19168380011785556200109b565b828001600101855582156200109b579182015b828111156200109a5782518255916020019190600101906200107d565b5b509050620010aa91906200113d565b5090565b8280548282559060005260206000209081019282156200112a579160200282015b82811115620011295782518260006101000a81548173ffffffffffffffffffffffffffffffffffffffff021916908373ffffffffffffffffffffffffffffffffffffffff16021790555091602001919060010190620010cf565b5b50905062001139919062001165565b5090565b6200116291905b808211156200115e57600081600090555060010162001144565b5090565b90565b620011a891905b80821115620011a457600081816101000a81549073ffffffffffffffffffffffffffffffffffffffff0219169055506001016200116c565b5090565b90565b61371980620011bb6000396000f3fe608060405234801561001057600080fd5b506004361061014d5760003560e01c806395d89b41116100c3578063d95b63711161007c578063d95b6371146107d0578063dd62ed3e1461084c578063e0344657146108c4578063fad8b32a14610947578063fc673c4f1461098b578063fe9d930314610a835761014d565b806395d89b411461059a578063983b2d561461061d57806398650275146106615780639bd9bbc61461066b578063a9059cbb1461070e578063aa271e1a146107745761014d565b8063313ce56711610115578063313ce5671461033e57806340c10f1914610362578063556f0dc7146103c857806362ad1b83146103e657806370a08231146104fe578063959b8c3f146105565761014d565b806306e485381461015257806306fdde03146101b1578063095ea7b31461023457806318160ddd1461029a57806323b872dd146102b8575b600080fd5b61015a610b06565b6040518080602001828103825283818151815260200191508051906020019060200280838360005b8381101561019d578082015181840152602081019050610182565b505050509050019250505060405180910390f35b6101b9610b94565b6040518080602001828103825283818151815260200191508051906020019080838360005b838110156101f95780820151818401526020810190506101de565b50505050905090810190601f1680156102265780820380516001836020036101000a031916815260200191505b509250505060405180910390f35b6102806004803603604081101561024a57600080fd5b81019080803573ffffffffffffffffffffffffffffffffffffffff16906020019092919080359060200190929190505050610c36565b604051808215151515815260200191505060405180910390f35b6102a2610c59565b6040518082815260200191505060405180910390f35b610324600480360360608110156102ce57600080fd5b81019080803573ffffffffffffffffffffffffffffffffffffffff169060200190929190803573ffffffffffffffffffffffffffffffffffffffff16906020019092919080359060200190929190505050610c63565b604051808215151515815260200191505060405180910390f35b610346610ec1565b604051808260ff1660ff16815260200191505060405180910390f35b6103ae6004803603604081101561037857600080fd5b81019080803573ffffffffffffffffffffffffffffffffffffffff16906020019092919080359060200190929190505050610eca565b604051808215151515815260200191505060405180910390f35b6103d0610f66565b6040518082815260200191505060405180910390f35b6104fc600480360360a08110156103fc57600080fd5b81019080803573ffffffffffffffffffffffffffffffffffffffff169060200190929190803573ffffffffffffffffffffffffffffffffffffffff169060200190929190803590602001909291908035906020019064010000000081111561046357600080fd5b82018360208201111561047557600080fd5b8035906020019184600183028401116401000000008311171561049757600080fd5b9091929391929390803590602001906401000000008111156104b857600080fd5b8201836020820111156104ca57600080fd5b803590602001918460018302840111640100000000831117156104ec57600080fd5b9091929391929390505050610f6f565b005b6105406004803603602081101561051457600080fd5b81019080803573ffffffffffffffffffffffffffffffffffffffff16906020019092919050505061107d565b6040518082815260200191505060405180910390f35b6105986004803603602081101561056c57600080fd5b81019080803573ffffffffffffffffffffffffffffffffffffffff1690602001909291905050506110c5565b005b6105a261133c565b6040518080602001828103825283818151815260200191508051906020019080838360005b838110156105e25780820151818401526020810190506105c7565b50505050905090810190601f16801561060f5780820380516001836020036101000a031916815260200191505b509250505060405180910390f35b61065f6004803603602081101561063357600080fd5b81019080803573ffffffffffffffffffffffffffffffffffffffff1690602001909291905050506113de565b005b61066961144f565b005b61070c6004803603606081101561068157600080fd5b81019080803573ffffffffffffffffffffffffffffffffffffffff16906020019092919080359060200190929190803590602001906401000000008111156106c857600080fd5b8201836020820111156106da57600080fd5b803590602001918460018302840111640100000000831117156106fc57600080fd5b9091929391929390505050611461565b005b61075a6004803603604081101561072457600080fd5b81019080803573ffffffffffffffffffffffffffffffffffffffff169060200190929190803590602001909291905050506114d8565b604051808215151515815260200191505060405180910390f35b6107b66004803603602081101561078a57600080fd5b81019080803573ffffffffffffffffffffffffffffffffffffffff1690602001909291905050506115fc565b604051808215151515815260200191505060405180910390f35b610832600480360360408110156107e657600080fd5b81019080803573ffffffffffffffffffffffffffffffffffffffff169060200190929190803573ffffffffffffffffffffffffffffffffffffffff169060200190929190505050611619565b604051808215151515815260200191505060405180910390f35b6108ae6004803603604081101561086257600080fd5b81019080803573ffffffffffffffffffffffffffffffffffffffff169060200190929190803573ffffffffffffffffffffffffffffffffffffffff1690602001909291905050506117ca565b6040518082815260200191505060405180910390f35b6108cc611851565b6040518080602001828103825283818151815260200191508051906020019080838360005b8381101561090c5780820151818401526020810190506108f1565b50505050905090810190601f1680156109395780820380516001836020036101000a031916815260200191505b509250505060405180910390f35b6109896004803603602081101561095d57600080fd5b81019080803573ffffffffffffffffffffffffffffffffffffffff1690602001909291905050506118ef565b005b610a81600480360360808110156109a157600080fd5b81019080803573ffffffffffffffffffffffffffffffffffffffff16906020019092919080359060200190929190803590602001906401000000008111156109e857600080fd5b8201836020820111156109fa57600080fd5b80359060200191846001830284011164010000000083111715610a1c57600080fd5b909192939192939080359060200190640100000000811115610a3d57600080fd5b820183602082011115610a4f57600080fd5b80359060200191846001830284011164010000000083111715610a7157600080fd5b9091929391929390505050611b66565b005b610b0460048036036040811015610a9957600080fd5b810190808035906020019092919080359060200190640100000000811115610ac057600080fd5b820183602082011115610ad257600080fd5b80359060200191846001830284011164010000000083111715610af457600080fd5b9091929391929390505050611c70565b005b60606004805480602002602001604051908101604052809291908181526020018280548015610b8a57602002820191906000526020600020905b8160009054906101000a900473ffffffffffffffffffffffffffffffffffffffff1673ffffffffffffffffffffffffffffffffffffffff1681526020019060010190808311610b40575b5050505050905090565b606060028054600181600116156101000203166002900480601f016020809104026020016040519081016040528092919081815260200182805460018160011615610100020316600290048015610c2c5780601f10610c0157610100808354040283529160200191610c2c565b820191906000526020600020905b815481529060010190602001808311610c0f57829003601f168201915b5050505050905090565b600080610c41611ce3565b9050610c4e818585611ceb565b600191505092915050565b6000600154905090565b60008073ffffffffffffffffffffffffffffffffffffffff168373ffffffffffffffffffffffffffffffffffffffff161415610cea576040517f08c379a00000000000000000000000000000000000000000000000000000000081526004018080602001828103825260248152602001806136006024913960400191505060405180910390fd5b600073ffffffffffffffffffffffffffffffffffffffff168473ffffffffffffffffffffffffffffffffffffffff161415610d70576040517f08c379a00000000000000000000000000000000000000000000000000000000081526004018080602001828103825260268152602001806136796026913960400191505060405180910390fd5b6000610d7a611ce3565b9050610da8818686866040518060200160405280600081525060405180602001604052806000815250611e5c565b610dd4818686866040518060200160405280600081525060405180602001604052806000815250612176565b610e878582610e828660405180606001604052806029815260200161365060299139600860008c73ffffffffffffffffffffffffffffffffffffffff1673ffffffffffffffffffffffffffffffffffffffff16815260200190815260200160002060008873ffffffffffffffffffffffffffffffffffffffff1673ffffffffffffffffffffffffffffffffffffffff168152602001908152602001600020546124799092919063ffffffff16565b611ceb565b610eb58186868660405180602001604052806000815250604051806020016040528060008152506000612539565b60019150509392505050565b60006012905090565b6000610edc610ed7611ce3565b6115fc565b610f31576040517f08c379a00000000000000000000000000000000000000000000000000000000081526004018080602001828103825260308152602001806135406030913960400191505060405180910390fd5b610f5c33848460405180602001604052806000815250604051806020016040528060008152506128d4565b6001905092915050565b60006001905090565b610f80610f7a611ce3565b88611619565b610fd5576040517f08c379a000000000000000000000000000000000000000000000000000000000815260040180806020018281038252602c815260200180613624602c913960400191505060405180910390fd5b611074610fe0611ce3565b88888888888080601f016020809104026020016040519081016040528093929190818152602001838380828437600081840152601f19601f8201169050808301925050505050505087878080601f016020809104026020016040519081016040528093929190818152602001838380828437600081840152601f19601f820116905080830192505050505050506001612be2565b50505050505050565b60008060008373ffffffffffffffffffffffffffffffffffffffff1673ffffffffffffffffffffffffffffffffffffffff168152602001908152602001600020549050919050565b8073ffffffffffffffffffffffffffffffffffffffff166110e4611ce3565b73ffffffffffffffffffffffffffffffffffffffff161415611151576040517f08c379a00000000000000000000000000000000000000000000000000000000081526004018080602001828103825260248152602001806134fb6024913960400191505060405180910390fd5b600560008273ffffffffffffffffffffffffffffffffffffffff1673ffffffffffffffffffffffffffffffffffffffff16815260200190815260200160002060009054906101000a900460ff161561123b57600760006111af611ce3565b73ffffffffffffffffffffffffffffffffffffffff1673ffffffffffffffffffffffffffffffffffffffff16815260200190815260200160002060008273ffffffffffffffffffffffffffffffffffffffff1673ffffffffffffffffffffffffffffffffffffffff16815260200190815260200160002060006101000a81549060ff02191690556112d8565b600160066000611249611ce3565b73ffffffffffffffffffffffffffffffffffffffff1673ffffffffffffffffffffffffffffffffffffffff16815260200190815260200160002060008373ffffffffffffffffffffffffffffffffffffffff1673ffffffffffffffffffffffffffffffffffffffff16815260200190815260200160002060006101000a81548160ff0219169083151502179055505b6112e0611ce3565b73ffffffffffffffffffffffffffffffffffffffff168173ffffffffffffffffffffffffffffffffffffffff167ff4caeb2d6ca8932a215a353d0703c326ec2d81fc68170f320eb2ab49e9df61f960405160405180910390a350565b606060038054600181600116156101000203166002900480601f0160208091040260200160405190810160405280929190818152602001828054600181600116156101000203166002900480156113d45780601f106113a9576101008083540402835291602001916113d4565b820191906000526020600020905b8154815290600101906020018083116113b757829003601f168201915b5050505050905090565b6113ee6113e9611ce3565b6115fc565b611443576040517f08c379a00000000000000000000000000000000000000000000000000000000081526004018080602001828103825260308152602001806135406030913960400191505060405180910390fd5b61144c81612d3f565b50565b61145f61145a611ce3565b612d99565b565b6114d261146c611ce3565b611474611ce3565b868686868080601f016020809104026020016040519081016040528093929190818152602001838380828437600081840152601f19601f82011690508083019250505050505050604051806020016040528060008152506001612be2565b50505050565b60008073ffffffffffffffffffffffffffffffffffffffff168373ffffffffffffffffffffffffffffffffffffffff16141561155f576040517f08c379a00000000000000000000000000000000000000000000000000000000081526004018080602001828103825260248152602001806136006024913960400191505060405180910390fd5b6000611569611ce3565b9050611597818286866040518060200160405280600081525060405180602001604052806000815250611e5c565b6115c3818286866040518060200160405280600081525060405180602001604052806000815250612176565b6115f18182868660405180602001604052806000815250604051806020016040528060008152506000612539565b600191505092915050565b6000611612826009612df390919063ffffffff16565b9050919050565b60008173ffffffffffffffffffffffffffffffffffffffff168373ffffffffffffffffffffffffffffffffffffffff1614806117315750600560008473ffffffffffffffffffffffffffffffffffffffff1673ffffffffffffffffffffffffffffffffffffffff16815260200190815260200160002060009054906101000a900460ff1680156117305750600760008373ffffffffffffffffffffffffffffffffffffffff1673ffffffffffffffffffffffffffffffffffffffff16815260200190815260200160002060008473ffffffffffffffffffffffffffffffffffffffff1673ffffffffffffffffffffffffffffffffffffffff16815260200190815260200160002060009054906101000a900460ff16155b5b806117c25750600660008373ffffffffffffffffffffffffffffffffffffffff1673ffffffffffffffffffffffffffffffffffffffff16815260200190815260200160002060008473ffffffffffffffffffffffffffffffffffffffff1673ffffffffffffffffffffffffffffffffffffffff16815260200190815260200160002060009054906101000a900460ff165b905092915050565b6000600860008473ffffffffffffffffffffffffffffffffffffffff1673ffffffffffffffffffffffffffffffffffffffff16815260200190815260200160002060008373ffffffffffffffffffffffffffffffffffffffff1673ffffffffffffffffffffffffffffffffffffffff16815260200190815260200160002054905092915050565b600a8054600181600116156101000203166002900480601f0160208091040260200160405190810160405280929190818152602001828054600181600116156101000203166002900480156118e75780601f106118bc576101008083540402835291602001916118e7565b820191906000526020600020905b8154815290600101906020018083116118ca57829003601f168201915b505050505081565b6118f7611ce3565b73ffffffffffffffffffffffffffffffffffffffff168173ffffffffffffffffffffffffffffffffffffffff16141561197b576040517f08c379a000000000000000000000000000000000000000000000000000000000815260040180806020018281038252602181526020018061351f6021913960400191505060405180910390fd5b600560008273ffffffffffffffffffffffffffffffffffffffff1673ffffffffffffffffffffffffffffffffffffffff16815260200190815260200160002060009054906101000a900460ff1615611a6e576001600760006119db611ce3565b73ffffffffffffffffffffffffffffffffffffffff1673ffffffffffffffffffffffffffffffffffffffff16815260200190815260200160002060008373ffffffffffffffffffffffffffffffffffffffff1673ffffffffffffffffffffffffffffffffffffffff16815260200190815260200160002060006101000a81548160ff021916908315150217905550611b02565b60066000611a7a611ce3565b73ffffffffffffffffffffffffffffffffffffffff1673ffffffffffffffffffffffffffffffffffffffff16815260200190815260200160002060008273ffffffffffffffffffffffffffffffffffffffff1673ffffffffffffffffffffffffffffffffffffffff16815260200190815260200160002060006101000a81549060ff02191690555b611b0a611ce3565b73ffffffffffffffffffffffffffffffffffffffff168173ffffffffffffffffffffffffffffffffffffffff167f50546e66e5f44d728365dc3908c63bc5cfeeab470722c1677e3073a6ac294aa160405160405180910390a350565b611b77611b71611ce3565b87611619565b611bcc576040517f08c379a000000000000000000000000000000000000000000000000000000000815260040180806020018281038252602c815260200180613624602c913960400191505060405180910390fd5b611c68611bd7611ce3565b878787878080601f016020809104026020016040519081016040528093929190818152602001838380828437600081840152601f19601f8201169050808301925050505050505086868080601f016020809104026020016040519081016040528093929190818152602001838380828437600081840152601f19601f82011690508083019250505050505050612ed1565b505050505050565b611cde611c7b611ce3565b611c83611ce3565b8585858080601f016020809104026020016040519081016040528093929190818152602001838380828437600081840152601f19601f8201169050808301925050505050505060405180602001604052806000815250612ed1565b505050565b600033905090565b600073ffffffffffffffffffffffffffffffffffffffff168273ffffffffffffffffffffffffffffffffffffffff161415611d71576040517f08c379a00000000000000000000000000000000000000000000000000000000081526004018080602001828103825260238152602001806136c26023913960400191505060405180910390fd5b80600860008573ffffffffffffffffffffffffffffffffffffffff1673ffffffffffffffffffffffffffffffffffffffff16815260200190815260200160002060008473ffffffffffffffffffffffffffffffffffffffff1673ffffffffffffffffffffffffffffffffffffffff168152602001908152602001600020819055508173ffffffffffffffffffffffffffffffffffffffff168373ffffffffffffffffffffffffffffffffffffffff167f8c5be1e5ebec7d5bd14f71427d1e84f3dd0314c0f7b2291e5b200ac8c7c3b925836040518082815260200191505060405180910390a3505050565b6000731820a4b7618bde71dce8cdc73aab6c95905fad2473ffffffffffffffffffffffffffffffffffffffff1663aabbb8ca877f29ddb589b1fb5fc7cf394961c1adf5f8c6454761adf795e67fe149f658abe89560001b6040518363ffffffff1660e01b8152600401808373ffffffffffffffffffffffffffffffffffffffff1673ffffffffffffffffffffffffffffffffffffffff1681526020018281526020019250505060206040518083038186803b158015611f1a57600080fd5b505afa158015611f2e573d6000803e3d6000fd5b505050506040513d6020811015611f4457600080fd5b81019080805190602001909291905050509050600073ffffffffffffffffffffffffffffffffffffffff168173ffffffffffffffffffffffffffffffffffffffff161461216d578073ffffffffffffffffffffffffffffffffffffffff166375ab97828888888888886040518763ffffffff1660e01b8152600401808773ffffffffffffffffffffffffffffffffffffffff1673ffffffffffffffffffffffffffffffffffffffff1681526020018673ffffffffffffffffffffffffffffffffffffffff1673ffffffffffffffffffffffffffffffffffffffff1681526020018573ffffffffffffffffffffffffffffffffffffffff1673ffffffffffffffffffffffffffffffffffffffff1681526020018481526020018060200180602001838103835285818151815260200191508051906020019080838360005b8381101561209c578082015181840152602081019050612081565b50505050905090810190601f1680156120c95780820380516001836020036101000a031916815260200191505b50838103825284818151815260200191508051906020019080838360005b838110156121025780820151818401526020810190506120e7565b50505050905090810190601f16801561212f5780820380516001836020036101000a031916815260200191505b5098505050505050505050600060405180830381600087803b15801561215457600080fd5b505af1158015612168573d6000803e3d6000fd5b505050505b50505050505050565b6121e1836040518060600160405280602781526020016134b2602791396000808973ffffffffffffffffffffffffffffffffffffffff1673ffffffffffffffffffffffffffffffffffffffff168152602001908152602001600020546124799092919063ffffffff16565b6000808773ffffffffffffffffffffffffffffffffffffffff1673ffffffffffffffffffffffffffffffffffffffff16815260200190815260200160002081905550612274836000808773ffffffffffffffffffffffffffffffffffffffff1673ffffffffffffffffffffffffffffffffffffffff168152602001908152602001600020546131da90919063ffffffff16565b6000808673ffffffffffffffffffffffffffffffffffffffff1673ffffffffffffffffffffffffffffffffffffffff168152602001908152602001600020819055508373ffffffffffffffffffffffffffffffffffffffff168573ffffffffffffffffffffffffffffffffffffffff168773ffffffffffffffffffffffffffffffffffffffff167f06b541ddaa720db2b10a4d0cdac39b8d360425fc073085fac19bc82614677987868686604051808481526020018060200180602001838103835285818151815260200191508051906020019080838360005b8381101561236957808201518184015260208101905061234e565b50505050905090810190601f1680156123965780820380516001836020036101000a031916815260200191505b50838103825284818151815260200191508051906020019080838360005b838110156123cf5780820151818401526020810190506123b4565b50505050905090810190601f1680156123fc5780820380516001836020036101000a031916815260200191505b509550505050505060405180910390a48373ffffffffffffffffffffffffffffffffffffffff168573ffffffffffffffffffffffffffffffffffffffff167fddf252ad1be2c89b69c2b068fc378daa952ba7f163c4a11628f55a4df523b3ef856040518082815260200191505060405180910390a3505050505050565b6000838311158290612526576040517f08c379a00000000000000000000000000000000000000000000000000000000081526004018080602001828103825283818151815260200191508051906020019080838360005b838110156124eb5780820151818401526020810190506124d0565b50505050905090810190601f1680156125185780820380516001836020036101000a031916815260200191505b509250505060405180910390fd5b5060008385039050809150509392505050565b6000731820a4b7618bde71dce8cdc73aab6c95905fad2473ffffffffffffffffffffffffffffffffffffffff1663aabbb8ca877fb281fc8c12954d22544db45de3159a39272895b169a852b314f9cc762e44c53b60001b6040518363ffffffff1660e01b8152600401808373ffffffffffffffffffffffffffffffffffffffff1673ffffffffffffffffffffffffffffffffffffffff1681526020018281526020019250505060206040518083038186803b1580156125f757600080fd5b505afa15801561260b573d6000803e3d6000fd5b505050506040513d602081101561262157600080fd5b81019080805190602001909291905050509050600073ffffffffffffffffffffffffffffffffffffffff168173ffffffffffffffffffffffffffffffffffffffff161461284d578073ffffffffffffffffffffffffffffffffffffffff166223de298989898989896040518763ffffffff1660e01b8152600401808773ffffffffffffffffffffffffffffffffffffffff1673ffffffffffffffffffffffffffffffffffffffff1681526020018673ffffffffffffffffffffffffffffffffffffffff1673ffffffffffffffffffffffffffffffffffffffff1681526020018573ffffffffffffffffffffffffffffffffffffffff1673ffffffffffffffffffffffffffffffffffffffff1681526020018481526020018060200180602001838103835285818151815260200191508051906020019080838360005b8381101561277857808201518184015260208101905061275d565b50505050905090810190601f1680156127a55780820380516001836020036101000a031916815260200191505b50838103825284818151815260200191508051906020019080838360005b838110156127de5780820151818401526020810190506127c3565b50505050905090810190601f16801561280b5780820380516001836020036101000a031916815260200191505b5098505050505050505050600060405180830381600087803b15801561283057600080fd5b505af1158015612844573d6000803e3d6000fd5b505050506128ca565b81156128c9576128728673ffffffffffffffffffffffffffffffffffffffff16613262565b156128c8576040517f08c379a000000000000000000000000000000000000000000000000000000000815260040180806020018281038252604d8152602001806135b3604d913960600191505060405180910390fd5b5b5b5050505050505050565b600073ffffffffffffffffffffffffffffffffffffffff168473ffffffffffffffffffffffffffffffffffffffff161415612977576040517f08c379a00000000000000000000000000000000000000000000000000000000081526004018080602001828103825260208152602001807f4552433737373a206d696e7420746f20746865207a65726f206164647265737381525060200191505060405180910390fd5b61298c836001546131da90919063ffffffff16565b6001819055506129e3836000808773ffffffffffffffffffffffffffffffffffffffff1673ffffffffffffffffffffffffffffffffffffffff168152602001908152602001600020546131da90919063ffffffff16565b6000808673ffffffffffffffffffffffffffffffffffffffff1673ffffffffffffffffffffffffffffffffffffffff16815260200190815260200160002081905550612a36856000868686866001612539565b8373ffffffffffffffffffffffffffffffffffffffff168573ffffffffffffffffffffffffffffffffffffffff167f2fe5be0146f74c5bce36c0b80911af6c7d86ff27e89d5cfa61fc681327954e5d858585604051808481526020018060200180602001838103835285818151815260200191508051906020019080838360005b83811015612ad2578082015181840152602081019050612ab7565b50505050905090810190601f168015612aff5780820380516001836020036101000a031916815260200191505b50838103825284818151815260200191508051906020019080838360005b83811015612b38578082015181840152602081019050612b1d565b50505050905090810190601f168015612b655780820380516001836020036101000a031916815260200191505b509550505050505060405180910390a38373ffffffffffffffffffffffffffffffffffffffff16600073ffffffffffffffffffffffffffffffffffffffff167fddf252ad1be2c89b69c2b068fc378daa952ba7f163c4a11628f55a4df523b3ef856040518082815260200191505060405180910390a35050505050565b600073ffffffffffffffffffffffffffffffffffffffff168673ffffffffffffffffffffffffffffffffffffffff161415612c68576040517f08c379a00000000000000000000000000000000000000000000000000000000081526004018080602001828103825260228152602001806134906022913960400191505060405180910390fd5b600073ffffffffffffffffffffffffffffffffffffffff168573ffffffffffffffffffffffffffffffffffffffff161415612d0b576040517f08c379a00000000000000000000000000000000000000000000000000000000081526004018080602001828103825260208152602001807f4552433737373a2073656e6420746f20746865207a65726f206164647265737381525060200191505060405180910390fd5b612d19878787878787611e5c565b612d27878787878787612176565b612d3687878787878787612539565b50505050505050565b612d538160096132ad90919063ffffffff16565b8073ffffffffffffffffffffffffffffffffffffffff167f6ae172837ea30b801fbfcdd4108aa1d5bf8ff775444fd70256b44e6bf3dfc3f660405160405180910390a250565b612dad81600961338890919063ffffffff16565b8073ffffffffffffffffffffffffffffffffffffffff167fe94479a9f7e1952cc78f2d6baab678adc1b772d936c6583def489e524cb6669260405160405180910390a250565b60008073ffffffffffffffffffffffffffffffffffffffff168273ffffffffffffffffffffffffffffffffffffffff161415612e7a576040517f08c379a00000000000000000000000000000000000000000000000000000000081526004018080602001828103825260228152602001806135916022913960400191505060405180910390fd5b8260000160008373ffffffffffffffffffffffffffffffffffffffff1673ffffffffffffffffffffffffffffffffffffffff16815260200190815260200160002060009054906101000a900460ff16905092915050565b600073ffffffffffffffffffffffffffffffffffffffff168473ffffffffffffffffffffffffffffffffffffffff161415612f57576040517f08c379a00000000000000000000000000000000000000000000000000000000081526004018080602001828103825260228152602001806134d96022913960400191505060405180910390fd5b612f6685856000868686611e5c565b612fd18360405180606001604052806023815260200161369f602391396000808873ffffffffffffffffffffffffffffffffffffffff1673ffffffffffffffffffffffffffffffffffffffff168152602001908152602001600020546124799092919063ffffffff16565b6000808673ffffffffffffffffffffffffffffffffffffffff1673ffffffffffffffffffffffffffffffffffffffff168152602001908152602001600020819055506130288360015461344590919063ffffffff16565b6001819055508373ffffffffffffffffffffffffffffffffffffffff168573ffffffffffffffffffffffffffffffffffffffff167fa78a9be3a7b862d26933ad85fb11d80ef66b8f972d7cbba06621d583943a4098858585604051808481526020018060200180602001838103835285818151815260200191508051906020019080838360005b838110156130ca5780820151818401526020810190506130af565b50505050905090810190601f1680156130f75780820380516001836020036101000a031916815260200191505b50838103825284818151815260200191508051906020019080838360005b83811015613130578082015181840152602081019050613115565b50505050905090810190601f16801561315d5780820380516001836020036101000a031916815260200191505b509550505050505060405180910390a3600073ffffffffffffffffffffffffffffffffffffffff168473ffffffffffffffffffffffffffffffffffffffff167fddf252ad1be2c89b69c2b068fc378daa952ba7f163c4a11628f55a4df523b3ef856040518082815260200191505060405180910390a35050505050565b600080828401905083811015613258576040517f08c379a000000000000000000000000000000000000000000000000000000000815260040180806020018281038252601b8152602001807f536166654d6174683a206164646974696f6e206f766572666c6f77000000000081525060200191505060405180910390fd5b8091505092915050565b60008060007fc5d2460186f7233c927e7db2dcc703c0e500b653ca82273b7bfad8045d85a47060001b9050833f91506000801b82141580156132a45750808214155b92505050919050565b6132b78282612df3565b1561332a576040517f08c379a000000000000000000000000000000000000000000000000000000000815260040180806020018281038252601f8152602001807f526f6c65733a206163636f756e7420616c72656164792068617320726f6c650081525060200191505060405180910390fd5b60018260000160008373ffffffffffffffffffffffffffffffffffffffff1673ffffffffffffffffffffffffffffffffffffffff16815260200190815260200160002060006101000a81548160ff0219169083151502179055505050565b6133928282612df3565b6133e7576040517f08c379a00000000000000000000000000000000000000000000000000000000081526004018080602001828103825260218152602001806135706021913960400191505060405180910390fd5b60008260000160008373ffffffffffffffffffffffffffffffffffffffff1673ffffffffffffffffffffffffffffffffffffffff16815260200190815260200160002060006101000a81548160ff0219169083151502179055505050565b600061348783836040518060400160405280601e81526020017f536166654d6174683a207375627472616374696f6e206f766572666c6f770000815250612479565b90509291505056fe4552433737373a2073656e642066726f6d20746865207a65726f20616464726573734552433737373a207472616e7366657220616d6f756e7420657863656564732062616c616e63654552433737373a206275726e2066726f6d20746865207a65726f20616464726573734552433737373a20617574686f72697a696e672073656c66206173206f70657261746f724552433737373a207265766f6b696e672073656c66206173206f70657261746f724d696e746572526f6c653a2063616c6c657220646f6573206e6f74206861766520746865204d696e74657220726f6c65526f6c65733a206163636f756e7420646f6573206e6f74206861766520726f6c65526f6c65733a206163636f756e7420697320746865207a65726f20616464726573734552433737373a20746f6b656e20726563697069656e7420636f6e747261637420686173206e6f20696d706c656d656e74657220666f7220455243373737546f6b656e73526563697069656e744552433737373a207472616e7366657220746f20746865207a65726f20616464726573734552433737373a2063616c6c6572206973206e6f7420616e206f70657261746f7220666f7220686f6c6465724552433737373a207472616e7366657220616d6f756e74206578636565647320616c6c6f77616e63654552433737373a207472616e736665722066726f6d20746865207a65726f20616464726573734552433737373a206275726e20616d6f756e7420657863656564732062616c616e63654552433737373a20617070726f766520746f20746865207a65726f2061646472657373a265627a7a72315820247bf2dc977e19def78f28d9bedb43d02b47142bb506f9fdf966bc90b89fb96164736f6c634300050c0032526f6c65733a206163636f756e7420697320746865207a65726f20616464726573734552433737373a20746f6b656e20726563697069656e7420636f6e747261637420686173206e6f20696d706c656d656e74657220666f7220455243373737546f6b656e73526563697069656e74",
    "source": "pragma solidity ^0.5.0;\n\nimport \"@openzeppelin/contracts/token/ERC777/ERC777.sol\";\nimport \"./ERC777Mintable.sol\";\n/**\n * FanPiao-777 v2, Mintable ERC-777 FanPiao\n * @author Frank Wei<frank@frankwei.xyz>\n * DISCLAIMER:\n This contract is currently under development and\n SHOULD NOT be USED in the REAL world before proper reviews have been made.\n Use this contract with CAUTION as there are no warranty.\n =================\n The ERC-777 standard has you covered!\n as The ERC777 standard is backwards compatible with ERC20,\n meaning you can interact with these tokens as if they were ERC20,\n using the standard functions, while still getting all of the niceties,\n including send hooks.\n Check out https://docs.openzeppelin.com/contracts/2.x/tokens#ERC777 for detail.\n */\n\ncontract FanPiao777v2 is ERC777, ERC777Mintable {\n    string public issueWith = \"https://www.matataki.io/token\";\n\n    constructor(\n        string memory name,\n        string memory symbol,\n        uint256 initialSupply,\n        address[] memory defaultOperators\n    /**\n        the defaultOperators: special accounts (usually other smart contracts)\n    that will be able to transfer tokens on behalf of their holders.\n    If youre not planning on using operators in your token,\n    you can simply pass an empty array.\n    */\n    ) ERC777(name, symbol, defaultOperators) public {\n        _mint(msg.sender, msg.sender, initialSupply, \"\", \"\");\n    }\n}",
    "sourcePath": "/Users/frankwei/Code/soildity/truffle/contracts/FanPiao777v2.sol",
    "compiler": {
        "name": "solc",
        "version": "0.5.12+commit.7709ece9.Emscripten.clang"
    },
    "schemaVersion": "3.0.19",
    "updatedAt": "2019-12-05T09:35:36.062Z",
    "devdoc": {
        "author": "Frank Wei<frank@frankwei.xyz> DISCLAIMER: This contract is currently under development and SHOULD NOT be USED in the REAL world before proper reviews have been made. Use this contract with CAUTION as there are no warranty. ================= The ERC-777 standard has you covered! as The ERC777 standard is backwards compatible with ERC20, meaning you can interact with these tokens as if they were ERC20, using the standard functions, while still getting all of the niceties, including send hooks. Check out https://docs.openzeppelin.com/contracts/2.x/tokens#ERC777 for detail.",
        "methods": {
            "allowance(address,address)": {
                "details": "See {IERC20-allowance}.     * Note that operator and allowance concepts are orthogonal: operators may not have allowance, and accounts with allowance may not be operators themselves."
            },
            "approve(address,uint256)": {
                "details": "See {IERC20-approve}.     * Note that accounts cannot have allowance issued by their operators."
            },
            "authorizeOperator(address)": {
                "details": "See {IERC777-authorizeOperator}."
            },
            "balanceOf(address)": {
                "details": "Returns the amount of tokens owned by an account (`tokenHolder`)."
            },
            "burn(uint256,bytes)": {
                "details": "See {IERC777-burn}.     * Also emits a {Transfer} event for ERC20 compatibility."
            },
            "decimals()": {
                "details": "See {ERC20Detailed-decimals}.     * Always returns 18, as per the [ERC777 EIP](https://eips.ethereum.org/EIPS/eip-777#backward-compatibility)."
            },
            "defaultOperators()": {
                "details": "See {IERC777-defaultOperators}."
            },
            "granularity()": {
                "details": "See {IERC777-granularity}.     * This implementation always returns `1`."
            },
            "isOperatorFor(address,address)": {
                "details": "See {IERC777-isOperatorFor}."
            },
            "mint(address,uint256)": {
                "details": "See {ERC777-_mint}.     * Requirements:     * - the caller must have the {MinterRole}."
            },
            "name()": {
                "details": "See {IERC777-name}."
            },
            "operatorBurn(address,uint256,bytes,bytes)": {
                "details": "See {IERC777-operatorBurn}.     * Emits {Burned} and {Transfer} events."
            },
            "operatorSend(address,address,uint256,bytes,bytes)": {
                "details": "See {IERC777-operatorSend}.     * Emits {Sent} and {Transfer} events."
            },
            "revokeOperator(address)": {
                "details": "See {IERC777-revokeOperator}."
            },
            "send(address,uint256,bytes)": {
                "details": "See {IERC777-send}.     * Also emits a {Transfer} event for ERC20 compatibility."
            },
            "symbol()": {
                "details": "See {IERC777-symbol}."
            },
            "totalSupply()": {
                "details": "See {IERC777-totalSupply}."
            },
            "transfer(address,uint256)": {
                "details": "See {IERC20-transfer}.     * Unlike `send`, `recipient` is _not_ required to implement the {IERC777Recipient} interface if it is a contract.     * Also emits a {Sent} event."
            },
            "transferFrom(address,address,uint256)": {
                "details": "See {IERC20-transferFrom}.    * Note that operator and allowance concepts are orthogonal: operators cannot call `transferFrom` (unless they have allowance), and accounts with allowance cannot call `operatorSend` (unless they are operators).    * Emits {Sent}, {Transfer} and {Approval} events."
            }
        }
    },
    "userdoc": {
        "methods": {},
        "notice": "FanPiao-777 v2, Mintable ERC-777 FanPiao"
    }
}